:020000040800F2
:10000000FF4F0020E9020008310300083103000817
:10001000310300083103000831030008000000002C
:100020000000000000000000000000004121000866
:100030003103000800000000512200089922000846
:1000400031030008310300083103000831030008C0
:1000500031030008310300083103000831030008B0
:1000600031030008310300083103000831030008A0
:100070003103000831030008310300083103000890
:100080003103000831030008310300083103000880
:100090003103000831030008310300083103000870
:1000A0003103000831030008310300083103000860
:1000B0003103000831030008310300083103000850
:1000C0003103000831030008310300083103000840
:1000D0003103000831030008310300083103000830
:1000E000310300083103000831030008000000005C
:1000F0000000000000000000000000000000000000
:0C01000000000000000000005FF808F1A3
:1001100070B50D4E0D4D761BB61006D0002455F867
:10012000043B01349847A642F9D1094E094D00F02D
:10013000DDF9761BB61006D0002455F8043B0134D7
:100140009847A642F9D170BD48230008482300080B
:100150004823000848230008844641EA000313F0BE
:10016000030349D1403A23D30B6803604B684360D3
:100170008B688360CB68C3600B6903614B69436123
:100180008B698361CB69C3610B6A03624B6A43620B
:100190008B6A8362CB6AC3620B6B03634B6B4363F3
:1001A0008B6B8363CB6BC36340304031403ADBD20F
:1001B00030320BD30B6803604B6843608B688360FD
:1001C000CB68C36010301031103AF3D20C3205D333
:1001D00051F8043B40F8043B043AF9D2043208D009
:1001E000D2071CBF11F8013B00F8013B01D30B887B
:1001F00003806046704700BF082A13D38B07B1D035
:1002000010F00303AED0C3F10403D21ADB071CBF06
:1002100011F8013B00F8013BA4D331F8023B20F870
:10022000023B9FE7043AD9D3013A11F8013B00F8A9
:10023000013BF9D20B7803704B7843708B78837055
:1002400060467047830730B548D0541E002A3FD01F
:100250000346CAB201E0013C3AD303F8012B9D07E3
:10026000F9D1032C2DD9CDB245EA05250F2C45EA4D
:10027000054536D9A4F1100222F00F0C03F1200E2F
:10028000E6444FEA121C03F1100242E9045542E928
:10029000025510327245F8D10CF1010214F00C0F26
:1002A00003EB021204F00F0C13D0ACF1040323F0A3
:1002B00003030433134442F8045B9342FBD10CF074
:1002C00003042CB1CAB21C4403F8012B9C42FBD19D
:1002D00030BD64461346002CF4D1F9E703461446BA
:1002E000BFE71A46A446E0E700F024F80B480C49A3
:1002F0000C4A002302E0D458C4500433C4188C4282
:10030000F9D3094A094C002301E013600432A242E8
:10031000FBD3FFF7FDFE00F007F970470000002057
:100320000C000020482300080C0000205429002065
:10033000FEE7000080B400AF2F4B1B682E4A43F449
:100340008033136000BF2C4B1B6803F40033002B79
:10035000F9D02A4B1B68294A43F010031360274B3E
:100360001B68264A23F007031360244B1B68234AAB
:1003700043F004031360204B1F4A5B6853601E4B1D
:100380005B681D4A43F4806353601B4B1A4A5B68E9
:100390005360194B5B68184A23F47C135360164B67
:1003A0005B68154A43F4E8135360134B1B68124A09
:1003B00043F08073136000BF0F4B1B6803F00073A2
:1003C000002BF9D00C4B5B680B4A23F003035360FE
:1003D000094B5B68084A43F00203536000BF064BB9
:1003E0005B6803F00C03082BF9D1054B054A1A6032
:1003F00000BFBD4680BC7047001002400020024094
:100400000000002000A24A0480B485B000AF0023A1
:10041000FB600023BB6000237B602F4B5B6803F015
:100420000C03FB60FB68082B11D0FB68082B3AD843
:10043000FB68002B03D0FB68042B04D033E0274B70
:10044000274A1A6033E0254B254A1A602FE0224BD9
:100450005B6803F47013BB601F4B5B6803F480336D
:100460007B60BB689B0C0233BB607B68002B06D1B2
:10047000BB681C4A02FB03F3184A136017E0164BD3
:100480005B6803F40033002B06D0BB68154A02FBFF
:1004900003F3124A13600AE0BB68114A02FB03F33C
:1004A0000E4A136003E00D4B0D4A1A6000BF0A4B61
:1004B0005B681B0903F00F030B4AD35CFB60074B1F
:1004C0001A68FB6822FA03F3044A136000BF14376A
:1004D000BD4680BC704700BF0010024000000020F5
:1004E00000127A0000093D003823000880B400AFF4
:1004F00000BFBD4680BC704780B582B000AF786059
:10050000084B4FF000521A614FF4FA7000F058FC9B
:10051000044B4FF400521A614FF4FA7000F050FC93
:10052000EEE700BF0010014080B584B002AFFFF7D6
:100530006BFF124B9B69114A43F010039361104B00
:100540005B680F4A23F4400353600D4B5B680C4A11
:1005500043F480135360002301930123009300238D
:100560004FF480720749084800F00EFB78607B6802
:10057000012B00D0FEE700F091FCFEE700100240E6
:100580000010014020230008F904000880B483B063
:1005900000AF78607B6803F108027B685A607B6873
:1005A0004FF0FF329A607B6803F108027B68DA60E3
:1005B0007B6803F108027B681A617B6800221A607D
:1005C00000BF0C37BD4680BC704780B483B000AF1D
:1005D00078607B6800221A6100BF0C37BD4680BC82
:1005E000704780B485B000AF786039603B681B68A5
:1005F000BB60BB68B3F1FF3F03D17B681B69FB6045
:100600000CE07B680833FB6002E0FB685B68FB6022
:10061000FB685B681B68BA689A42F6D2FB685A6846
:100620003B685A603B685B683A689A603B68FA6866
:100630009A60FB683A685A603B687A681A617B681E
:100640001B685A1C7B681A6000BF1437BD4680BC0B
:10065000704780B485B000AF78607B681B69FB6031
:100660007B685B687A6892689A607B689B687A6846
:1006700052685A60FB685B687A689A4203D17B686B
:100680009A68FB685A607B6800221A61FB681B68E5
:100690005A1EFB681A60FB681B6818461437BD4673
:1006A00080BC704780B584B000AF786039600123AA
:1006B000FB607B68BB60BB68002B5DD0BB68DB6BFD
:1006C000002B59D0BB681A6CBB68DB6B0021A3FB05
:1006D0000223002B00D001210B46002B4CD101F04E
:1006E00083FDBB681A68BB68DB6BB968096C01FBEA
:1006F00003F31A44BB689A60BB6800229A63BB6824
:100700001A68BB685A60BB681A68BB68DB6B013B40
:10071000B968096C01FB03F31A44BB68DA60BB6873
:10072000FF2283F84420BB68FF2283F845203B6802
:10073000002B14D1BB681B69002B1AD0BB68103387
:10074000184600F08FFE0346002B12D00E4B4FF0E0
:1007500080521A60BFF34F8FBFF36F8F09E0BB6801
:1007600010331846FFF712FFBB6824331846FFF713
:100770000DFF01F053FD01E00023FB60FB6818460C
:100780001037BD4680BD00BF04ED00E080B58AB0E3
:1007900002AFF860B9601346FB710023FB61FB6890
:1007A000002B2DD00021BA68FB68A3FB0223002B8D
:1007B00000D001210B46002B22D1FB68BA6802FB56
:1007C00003F313F1490F1BD8FB68BA6802FB03F36C
:1007D000BB61BB694833184601F0CEFAF861FB698A
:1007E000002B0DD0FB697B617B6948337B61FA7913
:1007F000FB69009313467A69B968F86800F005F858
:10080000FB6918462037BD4680BD80B584B000AF77
:10081000F860B9607A60FB70BB68002B03D1BB69DC
:10082000BA691A6002E0BB697A681A60BB69FA6843
:10083000DA63BB69BA681A640121B869FFF732FF4D
:1008400000BF1037BD4680BD80B58AB000AFF860EC
:10085000B9607A6000237B62FB683B6201F0C4FCF4
:100860003B6A9B6BFB61FB69002B1FD0B968386A40
:1008700000F08CF8FB695A1E3B6A9A633B6A1B695D
:10088000002B0FD03B6A1033184600F0EBFD0346F7
:10089000002B07D03C4B4FF080521A60BFF34F8FB4
:1008A000BFF36F8F01F0BAFC012369E07B68002B76
:1008B00003D101F0B3FC002362E07B6A002B06D178
:1008C00007F11403184600F097FE01237B6201F044
:1008D000A5FC00F017FB01F087FC3B6A93F844305D
:1008E0005BB2B3F1FF3F03D13B6A002283F844209F
:1008F0003B6A93F845305BB2B3F1FF3F03D13B6AEB
:10090000002283F8452001F089FC3A1D07F1140309
:100910001146184600F086FE0346002B23D1386AA4
:1009200000F0ACF80346002B17D03B6A24337A68FA
:100930001146184600F048FD386A00F04DF800F006
:10094000EFFA0346002B89D10F4B4FF080521A600B
:10095000BFF34F8FBFF36F8F80E7386A00F03CF82A
:1009600000F0DEFA7AE7386A00F036F800F0D8FADC
:10097000386A00F083F80346002B3FF46FAF002382
:1009800018462837BD4680BD04ED00E080B582B032
:1009900000AF786039607B681B6C002B18D07B68D7
:1009A000DA687B681B6C1A447B68DA607B68DA68FB
:1009B0007B689B689A4203D37B681A687B68DA601D
:1009C0007B68D9687B681B6C1A463868FFF7C4FBE4
:1009D00000BF0837BD4680BD80B584B000AF7860E9
:1009E00001F002FC7B6893F84530FB7311E07B68F3
:1009F0005B6A002B12D07B682433184600F032FD6E
:100A00000346002B01D000F04FFEFB7B013BDBB225
:100A1000FB7397F90F30002BE9DC00E000BF7B6827
:100A2000FF2283F8452001F0F9FB01F0DDFB7B6834
:100A300093F84430BB7311E07B681B69002B12D024
:100A40007B681033184600F00DFD0346002B01D0E3
:100A500000F02AFEBB7B013BDBB2BB7397F90E3083
:100A6000002BE9DC00E000BF7B68FF2283F8442014
:100A700001F0D4FB00BF1037BD4680BD80B584B007
:100A800000AF786001F0B0FB7B689B6B002B02D15C
:100A90000123FB6001E00023FB6001F0BFFBFB686A
:100AA00018461037BD4680BD80B586B000AFF860EF
:100AB000B9607A60FB687B6101F096FB7B6993F813
:100AC00044305BB2B3F1FF3F03D17B69002283F86E
:100AD00044207B6993F845305BB2B3F1FF3F03D10B
:100AE0007B69002283F8452001F098FB7B699B6BB2
:100AF000002B06D17B6924337A68B968184600F068
:100B000079FC7869FFF768FF00BF1837BD4680BDE4
:100B100080B58AB004AFF860B9607A603B607B68EA
:100B20009B00184601F028F938613B69002B13D06F
:100B30004C2001F021F978617B69002B08D04C2210
:100B400000217869FFF77EFB7B693A691A6305E04B
:100B5000386901F0BFF901E000237B617B69002B5C
:100B60000DD0002303937B6902937B6A01933B6A58
:100B700000933B687A68B968F86800F028F87B69E8
:100B800018461837BD4680BD80B588B002AFF86002
:100B9000B9607A603B607B6A01933B6A00933B6873
:100BA0007A68B968F868FFF7B3FF38613B69002BD2
:100BB00005D0386900F070F801237B6102E04FF046
:100BC000FF337B617B6918461837BD4680BD80B511
:100BD00086B000AFF860B9607A603B60BB6A1A6BA0
:100BE0007B6803F18043013B9B0013443B613B69FD
:100BF00023F007033B61BB68002B1ED000237B6101
:100C000012E0BA687B6913441978BA6A7B691344A5
:100C100034330A461A70BA687B6913441B78002B78
:100C200006D07B6901337B617B690F2BE9D900E03A
:100C300000BFBB6A002283F843203B6A042B01D922
:100C400004233B62BB6A3A6ADA62BB6A0433184621
:100C5000FFF7BBFCBB6A18331846FFF7B6FCBB6A4C
:100C6000BA6A1A613B6AC3F10502BB6A9A61BB6A40
:100C7000BA6A5A623A68F968386901F01BFA0246A2
:100C8000BB6A1A607B6A002B02D07B6ABA6A1A6060
:100C900000BF1837BD4680BD80B584B000AF786016
:100CA00001F0A2FA3F4B1B6801333E4A13603E4BF2
:100CB0001B68002B09D13C4A7B681360394B1B68C9
:100CC000012B10D100F014FD0DE0384B1B68002BF8
:100CD00009D1354B1B68DA6A7B68DB6A9A4202D815
:100CE000314A7B681360324B1B680133304A136012
:100CF0007B68DB6A01229A402E4B1B6813432D4A06
:100D000013607B68DA6A2C4913469B0013449B00EE
:100D10000B4404331B68FB607B68FA689A60FB68CD
:100D20009A687B68DA60FB689B687A6804325A606C
:100D30007B681A1DFB689A607B68DA6A13469B0021
:100D400013449B001C4A1A447B685A617B68DA6A28
:100D5000194913469B0013449B000B441B687A6897
:100D6000D26A591C144813469B0013449B00034449
:100D7000196001F053FA0D4B1B68002B0ED00A4B83
:100D80001B68DA6A7B68DB6A9A4207D20B4B4FF02A
:100D900080521A60BFF34F8FBFF36F8F00BF1037C1
:100DA000BD4680BDD00000200C000020DC000020EB
:100DB000EC000020D80000201000002004ED00E02E
:100DC00080B584B000AF78600023FB607B68002BA7
:100DD00008D000F097F80021786800F01BFD00F0C3
:100DE0009FF8F860FB68002B07D1064B4FF080524C
:100DF0001A60BFF34F8FBFF36F8F00BF1037BD4630
:100E000080BD00BF04ED00E080B58AB002AF0123D1
:100E1000FB6100233B6100237B6111E01C4A7B697D
:100E2000134419783A467B6913440A461A703A46C5
:100E30007B6913441B78002B06D07B6901337B61EF
:100E40007B690F2BEADD00E000BF0023BB6115E0EA
:100E5000104B3B61BB699B000F4A13443946019319
:100E600000230093002380223869FFF78DFEF8618C
:100E7000FB69002B06D0BB690133BB61BB69002B4A
:100E8000E6DD00E000BFFB6918462037BD4680BDA7
:100E900028230008C1160008F400002080B582B0A5
:100EA00000AFFFF7B1FF78607B68012B02D100F043
:100EB00007FD78607B68012B15D14FF0500383F359
:100EC0001188BFF36F8FBFF34F8F3B6000BF094B9B
:100ED0004FF0FF321A60084B01221A60074B0022C4
:100EE0001A6001F053F9064B1B6800BF0837BD4676
:100EF00080BD00BFF0000020DC000020D4000020F6
:100F00000400002080B400AF044B1B680133034A87
:100F1000136000BFBD4680BC704700BFF8000020D2
:100F200080B588B000AF0023FB610023BB6101F0F6
:100F30005BF900233B616D4B1B68013B6B4A1360FF
:100F40006A4B1B68002B40F0CA80694B1B68002B62
:100F500000F0C5808EE0674BDB68DB68FB61FB69F6
:100F60009B6AFB60FB69DB69FA69126A9A60FB693C
:100F70001B6AFA69D2695A60FB685A68FB691833C0
:100F80009A4203D1FB691A6AFB685A60FB69002226
:100F90009A62FB681B685A1EFB681A60FB695B69F2
:100FA000BB60FB699B68FA69D2689A60FB69DB6881
:100FB000FA6992685A60BB685A68FB6904339A42BE
:100FC00003D1FB69DA68BB685A60FB6900225A6189
:100FD000BB681B685A1EBB681A60FB69DB6A01228A
:100FE0009A40454B1B681343434A1360FB69DA6A16
:100FF000424913469B0013449B000B4404331B6877
:101000007B60FB697A689A607B689A68FB69DA6042
:101010007B689B68FA6904325A60FB691A1D7B6819
:101020009A60FB69DA6A13469B0013449B00334ABB
:101030001A44FB695A61FB69DA6A304913469B001E
:1010400013449B000B441B68FA69D26A591C2B4855
:1010500013469B0013449B0003441960FB69DA6A42
:10106000274B1B68DB6A9A4204D9264A3B69012157
:1010700042F823101F4B1B68002B7FF46CAFFB69F9
:10108000002B01D000F0ACFB1F4B1B687B617B6920
:10109000002B12D000F04AF80346002B04D0194A66
:1010A0003B69012142F823107B69013B7B617B692D
:1010B000002BEFD1144B00221A60124A3B6952F800
:1010C0002330002B0BD00123BB610D4B1B680F4B52
:1010D0004FF080521A60BFF34F8FBFF36F8F01F054
:1010E0009DF8BB6918462037BD4680BDF80000203A
:1010F000D0000020A4000020D80000201000002014
:101100000C000020E4000020E000002004ED00E0DE
:1011100080B483B000AF044B1B687B607B681846CB
:101120000C37BD4680BC7047D400002080B588B025
:1011300000AF0023FB61764B1B68002B40F0DE8084
:10114000744B1B680133BB61724ABB691360BB6996
:10115000002B10D1704B1B687B61704B1B686E4A73
:1011600013606E4A7B6913606D4B1B6801336C4AD8
:10117000136000F035FB6B4B1B68BA699A42C0F0F4
:10118000A880654B1B681B68002B04D1654B4FF092
:10119000FF321A609DE0604B1B68DB68DB683B61D7
:1011A0003B695B68FB60BA69FB689A4203D25D4A9F
:1011B000FB6813608DE03B695B69BB603B699B68C2
:1011C0003A69D2689A603B69DB683A6992685A600A
:1011D000BB685A683B6904339A4203D13B69DA68B9
:1011E000BB685A603B6900225A61BB681B685A1E83
:1011F000BB681A603B699B6A002B1ED03B699B6AE7
:101200007B603B69DB693A69126A9A603B691B6AD9
:101210003A69D2695A607B685A683B6918339A42C6
:1012200003D13B691A6A7B685A603B6900229A6263
:101230007B681B685A1E7B681A603B69DB6A012267
:101240009A40394B1B681343374A13603B69DA6A8B
:10125000364913469B0013449B000B4404331B6820
:101260003B603B693A689A603B689A683B69DA6020
:101270003B689B683A6904325A603B691A1D3B68B7
:101280009A603B69DA6A13469B0013449B00274A25
:101290001A443B695A613B69DA6A244913469B0048
:1012A00013449B000B441B683A69D26A591C1F48BF
:1012B00013469B0013449B00034419603B69DA6AA0
:1012C0001B4B1B68DB6A9A427FF65BAF0123FB6115
:1012D00057E7174B1B68DA6A144913469B001344FF
:1012E0009B000B441B68012B01D90123FB61114BAF
:1012F0001B68002B07D00123FB6104E00E4B1B6829
:1013000001330D4A1360FB6918462037BD4680BD86
:10131000F8000020D40000209C000020A000002045
:10132000E8000020F0000020D8000020100000207D
:101330000C000020E4000020E000002080B485B014
:1013400000AF1C4B1B68002B03D01B4B01221A6003
:101350002BE0194B00221A60184B1B687B607B68DE
:10136000B3FA83F3FB70FB78C3F11F03FB60FA68E9
:1013700013469B0013449B00114A1344BB60BB6897
:101380005B685A68BB685A60BB685A68BB680833B8
:101390009A4203D1BB68DA68BB685A60BB685B6875
:1013A000DB68084A1360074B1B6800BF1437BD4653
:1013B00080BC7047F8000020E4000020D800002026
:1013C000100000200C00002080B582B000AF7860D3
:1013D0003960074B1B68183319467868FFF701F925
:1013E0000121386800F016FA00BF0837BD4680BDFD
:1013F0000C00002080B586B000AFF860B9607A605C
:10140000FB685B687B61164B1B687A69DA61144B79
:101410001B687A6992681A62114B1A687B699B682B
:1014200018325A600E4B1B6803F118027B699A60F0
:101430000B4B1B68FA689A62FB681B685A1CFB68B6
:101440001A607B68002B02D04FF0FF33BB607968D5
:10145000B86800F0DFF900BF1837BD4680BD00BF97
:101460000C00002080B489B000AF78607B68DB6836
:10147000DB68BB61BB699B6A7B61BB69DB69BA697D
:10148000126A9A60BB691B6ABA69D2695A607B6941
:101490005A68BB6918339A4203D1BB691A6A7B69DF
:1014A0005A60BB6900229A627B691B685A1E7B697D
:1014B0001A604B4B1B68002B60D1BB695B69FB60FA
:1014C000BB699B68BA69D2689A60BB69DB68BA6914
:1014D00092685A60FB685A68BB6904339A4203D128
:1014E000BB69DA68FB685A60BB6900225A61FB6815
:1014F0001B685A1EFB681A60BB69DB6A01229A40AE
:10150000384B1B681343374A1360BB69DA6A3649A4
:1015100013469B0013449B000B4404331B68BB60C1
:10152000BB69BA689A60BB689A68BB69DA60BB68D5
:101530009B68BA6904325A60BB691A1DBB689A601D
:10154000BB69DA6A13469B0013449B00264A1A447F
:10155000BB695A61BB69DA6A234913469B0013448D
:101560009B000B441B68BA69D26A591C1E4813467B
:101570009B0013449B00034419601BE01B4B5B68FA
:101580003B61BB693A69DA613B699A68BB691A6277
:101590003B699B68BA6918325A60BB6903F118024B
:1015A0003B699A60BB69114A9A62104B1B68013310
:1015B0000E4A1360BB69DA6A0D4B1B68DB6A9A42FC
:1015C00005D90123FB610B4B01221A6001E00023C6
:1015D000FB61FB6918462437BD4680BC704700BFDD
:1015E000F8000020D800002010000020A4000020F7
:1015F0000C000020E400002080B483B000AF7860CD
:10160000064B1A687B681A60054B1A687B685A603B
:1016100000BF0C37BD4680BC704700BFE80000200B
:10162000D400002080B586B000AF7860396000F04B
:10163000DBFD1B4B1B683B617B685B683A69D31A17
:10164000FB607B681A68174B1B689A420AD07B685C
:101650005B683A699A4205D301237B613B680022AB
:101660001A6015E03B681B68FA689A420BD23B6827
:101670001A68FB68D21A3B681A607868FFF7BCFFEB
:1016800000237B6104E03B6800221A6001237B6138
:1016900000F0C4FD7B6918461837BD4680BD00BF09
:1016A000D4000020E800002080B400AF034B0122EA
:1016B0001A6000BFBD4680BC704700BFE400002038
:1016C00080B582B000AF786000F04CF8064B1B6824
:1016D000012BF9D9054B4FF080521A60BFF34F8FA1
:1016E000BFF36F8FF0E700BF1000002004ED00E0B3
:1016F00080B582B000AF00237B600CE07A681346AF
:101700009B0013449B00104A13441846FEF73EFF0B
:101710007B6801337B607B68042BEFD90B48FEF7B5
:1017200035FF0B48FEF732FF0A48FEF72FFF0A4845
:10173000FEF72CFF094B054A1A60094B044A1A6050
:1017400000BF0837BD4680BD100000207400002097
:1017500088000020A4000020B80000209C00002089
:10176000A000002080B582B000AF19E000F03CFD81
:10177000104BDB68DB687B607B6804331846FEF740
:1017800068FF0D4B1B68013B0B4A13600B4B1B683A
:10179000013B0A4A136000F041FD786800F010F840
:1017A000064B1B68002BE1D100BF00BF0837BD46C8
:1017B00080BD00BFB8000020D0000020CC00002079
:1017C00080B582B000AF78607B681B6B184600F074
:1017D00081FB786800F07EFB00BF0837BD4680BD06
:1017E00080B400AF094B1B681B68002B04D1084B69
:1017F0004FF0FF321A6005E0044B1B68DB681B6882
:10180000034A136000BFBD4680BC70479C000020A7
:10181000F000002080B586B000AF78603960224BC0
:101820001B687B61214B1B683B61214B1B68FB6084
:10183000204B1B6804331846FEF70BFF0346002BB2
:101840000BD11C4B1B68DB6A012202FA03F3DA435B
:10185000194B1B681340184A13607A697B6813445C
:10186000BB60144B1B68BA685A60BA687B699A42BD
:1018700007D2104B1B6804331946F868FEF7B1FE17
:101880000EE00C4B1B68043319463869FEF7A9FEBD
:101890000A4B1B68BA689A4202D2084ABB681360B6
:1018A00000BF1837BD4680BDD40000209C0000203A
:1018B000A00000200C000020D8000020F000002034
:1018C00080B584B002AF00237B6000F02BFA0A4B96
:1018D0001B68002B0BD0094B0193022300930023BC
:1018E0004FF4807206490748FFF74EF978607B682D
:1018F00018460837BD4680BD2C010020300100206D
:1019000030230008AD19000880B584B000AFF8603E
:10191000B9607A6008E0FB689B69BA681344BB60F1
:10192000FB681B6AF8689847FB689A69BB68D1181E
:10193000BB687A68F86800F0DBF80346002BEAD150
:1019400000BF00BF1037BD4680BD000080B584B029
:1019500000AF78603960144B1B68DB68DB68FB60A4
:10196000FB6804331846FEF774FEFB6893F82430D6
:1019700003F00403002B05D03A687968F868FFF794
:10198000C3FF08E0FB6893F8243023F00103DAB2C8
:10199000FB6883F82420FB681B6AF868984700BF3F
:1019A0001037BD4680BD00BF2401002080B584B043
:1019B00000AF786007F10803184600F057F8F860A8
:1019C000BB681946F86800F003F800F0D3F8F1E7B7
:1019D00080B584B000AF78603960FFF793FA07F103
:1019E0000803184600F064F8F860BB68002B30D19B
:1019F0003B68002B0AD17A68FB689A4206D8FFF749
:101A00008FFAF9687868FFF7A1FF24E03B68002BA4
:101A100008D0134B1B681B68002B01D1012300E089
:101A200000233B600F4B18687A68FB68D31A3A684A
:101A30001946FFF739F8FFF773FA0346002B0AD16E
:101A4000094B4FF080521A60BFF34F8FBFF36F8F77
:101A500001E0FFF765FA00BF1037BD4680BD00BF4B
:101A6000280100202C01002004ED00E080B485B0A6
:101A700000AF78600D4B1B681B68002B01D1012261
:101A800000E000227B681A607B681B68002B05D190
:101A9000064B1B68DB681B68FB6001E00023FB60F2
:101AA000FB6818461437BD4680BC704724010020EF
:101AB00080B584B000AF7860FFF72AFBF8600B4B6D
:101AC0001B68FA689A4205D200F006F97B68012289
:101AD0001A6002E07B6800221A60044AFB68136007
:101AE000FB6818461037BD4680BD00BF340100209A
:101AF00080B586B000AFF860B9607A603B600023C3
:101B00007B61FB68BA685A60FB68FA681A61BA6858
:101B10007B689A4212D87A683B68D21AFB689B6944
:101B20009A4202D301237B611BE0104B1A68FB68C9
:101B3000043319461046FEF754FD12E07A683B68FC
:101B40009A4206D2BA683B689A4202D301237B616B
:101B500007E0074B1A68FB68043319461046FEF786
:101B600040FD7B6918461837BD4680BD280100201E
:101B70002401002080B586B000AF3B1D00221A6012
:101B80005A609A6096E07B68002BC0F29280FB68F6
:101B90007B617B695B69002B04D07B690433184649
:101BA000FEF757FD3B461846FFF782FF38617B681A
:101BB000013B082B7ED801A252F823F0E11B00085C
:101BC000E11B0008491C00085D1C0008891C000876
:101BD000E11B0008E11B0008491C00085D1C00080F
:101BE0007B6993F8243043F00103DAB27B6983F810
:101BF0002420BA687B699B69D118BB683A69786907
:101C0000FFF776FF0346002B54D07B6993F824300E
:101C100003F00403002B09D0BA687B699B69134465
:101C20003A6919467869FFF76FFE08E07B6993F817
:101C3000243023F00103DAB27B6983F824207B6926
:101C40001B6A7869984735E07B6993F8243023F064
:101C50000103DAB27B6983F824202BE07B6993F8D7
:101C6000243043F00103DAB27B6983F82420BA6898
:101C70007B699A617B699A693B69D1183B693A69CA
:101C80007869FFF735FF15E07B6993F8243003F09E
:101C90000203002B03D1786900F01CF90AE07B698C
:101CA00093F8243023F00103DAB27B6983F824200F
:101CB00000E000BF074B1B68391D00221846FEF7E5
:101CC000C3FD0346002B7FF45EAF00BF00BF183793
:101CD000BD4680BD2C01002080B582B000AF09E078
:101CE0000E4B1B68DB681B683B604FF0FF313868A8
:101CF000FFF72CFE094B1B681B68002BF0D1074B2C
:101D00001B687B60064B1B68044A1360044A7B68AF
:101D1000136000BF0837BD4680BD00BF240100200E
:101D20002801002080B500AF00F05EFA0D4B1B6863
:101D3000002B13D10C48FEF729FC0C48FEF726FCBB
:101D40000B4B094A1A600B4B084A1A6000220C21FF
:101D50000520FEF71BFD0346024A136000F05EFA01
:101D600000BF80BD2C010020FC00002010010020DD
:101D7000240100202801002080B588B000AF7860E1
:101D800000237B617B68002B22D00823DB437A6829
:101D90009A421BD808227B6813447B607B6803F05F
:101DA0000703002B14D07B6803F00703C3F108037B
:101DB0003B613B69DB437A689A4204D87A683B69A5
:101DC00013447B6004E000237B6001E000237B6020
:101DD000FFF798F83A4B1B68002B01D100F0B8F8D8
:101DE0007B68002B64DB7B68002B61D0354B1B6864
:101DF0007A689A425CD8344BBB61334B1B68FB61F9
:101E000004E0FB69BB61FB691B68FB61FB695B6804
:101E10007A689A4203D9FB691B68002BF1D1284BE1
:101E20001B68FA699A4243D0BB691B6808221344B5
:101E30007B61FB691A68BB691A60FB695A687B6839
:101E4000D21A08235B009A4213D9FA697B681344BB
:101E5000FB60FB695A687B68D21AFB685A60FB69B1
:101E60007A685A60BB691A68FB681A60BB69FA68CD
:101E70001A60144B1A68FB695B68D31A114A136025
:101E8000104B1A68114B1B689A4203D20D4B1B680A
:101E90000E4A1360FB695B6843F00042FB695A60BD
:101EA000FB6900221A600A4B1B680133084A136061
:101EB000FFF736F87B6918462037BD4680BD00BF66
:101EC00040290020442900203829002048290020EA
:101ED0004C29002080B584B000AF78607B68FB603F
:101EE0007B68002B2BD008235B42FA681344FB600D
:101EF000FB68BB60BB685B68DB0F03F00103DBB210
:101F0000002B1CD0BB681B68002B18D1BB685B681A
:101F100023F00042BB685A60FEF7F4FFBB685A68C2
:101F2000094B1B681344084A1360B86800F06AF84C
:101F3000064B1B680133054A1360FEF7F1FF00BF33
:101F40001037BD4680BD00BF442900205029002025
:101F500080B485B000AF4FF42053BB60244BFB60CE
:101F6000FB6803F00703002B0CD0FB680733FB6012
:101F7000FB6823F00703FB60BA68FB68D31A1C4AAE
:101F80001344BB60FB681B4A13601A4B00225A6063
:101F9000FA68BB6813447B6008227B689B1A7B60ED
:101FA0007B6823F007037B607B68134A1360124B46
:101FB0001B6800225A60104B1B6800221A60FB68E5
:101FC0003B603B687A68D21A3B685A600A4B1A68D1
:101FD0003B681A603B685B68084A13603B685B6853
:101FE000074A136000BF1437BD4680BC704700BF6E
:101FF00038010020382900204029002048290020ED
:102000004429002080B485B000AF7860274BFB6086
:1020100002E0FB681B68FB60FB681B687A689A42F9
:10202000F7D8FB68BB60FB685B68BA6813447A68E2
:102030009A4208D1FB685A687B685B681A44FB685F
:102040005A60FB687B607B68BB607B685B68BA68D2
:102050001A44FB681B689A4218D1FB681A68144B33
:102060001B689A420DD07B685A68FB681B685B68E6
:102070001A447B685A60FB681B681A687B681A60A0
:1020800008E00B4B1A687B681A6003E0FB681A686B
:102090007B681A60FA687B689A4202D0FB687A68AB
:1020A0001A6000BF1437BD4680BC70473829002035
:1020B0004029002080B485B000AFF860B9607A6034
:1020C000FB68043BFB60FB684FF080721A60FB68A2
:1020D000043BFB60BB6823F00102FB681A60FB68ED
:1020E000043BFB60084AFB681A60FB68143BFB601A
:1020F0007A68FB681A60FB68203BFB60FB68184647
:102100001437BD4680BC70470D21000880B483B0F1
:1021100000AF00233B604FF0500383F31188BFF3FF
:102120006F8FBFF34F8F7B6000BF00BF3B68002BFA
:10213000FCD000BF00BF0C37BD4680BC704700001C
:10214000074B19680868B0E8F00F80F30988BFF3FF
:102150006F8F4FF0000080F311884EF00D0E704726
:102160000C00002000BF00BF06480068006880F334
:10217000088862B661B6BFF34F8FBFF36F8F00DF81
:1021800000BF000008ED00E000BF00BF80B582B0D6
:1021900000AF114B1B687B60104B1B680F4A43F468
:1021A0007F0313600D4B1B680C4A43F07F431360A1
:1021B0000B4B00221A6000F091F80A4B00221A60C3
:1021C000FFF7D2FFFFF7BAF8FFF7A0FF002318468A
:1021D0000837BD4680BD00BF08ED00E020ED00E0FF
:1021E0001CED00E00800002080B483B000AF4FF089
:1021F000500383F31188BFF36F8FBFF34F8F7B6062
:1022000000BF054B1B680133034A136000BF0C3746
:10221000BD4680BC704700BF0800002080B483B07A
:1022200000AF0A4B1B68013B084A1360074B1B6851
:10223000002B05D100237B607B6883F3118800BFEE
:1022400000BF0C37BD4680BC704700BF08000020AF
:10225000EFF30980BFF36F8F0D4B1A6820E9F00F81
:1022600010602DE908404FF0500080F31188FFF70F
:1022700065F84FF0000080F31188BDE80840196848
:102280000868B0E8F00F80F30988BFF36F8F7047DC
:102290000C00002000BF00BF80B582B000AF4FF03F
:1022A000500383F31188BFF36F8FBFF34F8F7B60B1
:1022B00000BFFEF73BFF0346002B03D0064B4FF059
:1022C00080521A6000233B603B6883F3118800BF93
:1022D00000BF0837BD4680BD04ED00E080B400AF0C
:1022E0000A4B00221A600A4B00221A60094B1B6835
:1022F000094AA2FB03239B09084A013B1360034BD5
:1023000007221A6000BFBD4680BC704710E000E0A5
:1023100018E000E000000020D34D621014E000E05F
:10232000426C696E6B00000049444C45000000009F
:10233000546D72205376630000000000000000001E
:0823400001020304060708096D
:0C23480000127A0004000000AAAAAAAA51
:04000005080002E904
:00000001FF
